S00D000078787878352E7372656302
S11300000C9434000C9446000C9446000C94460066
S11300100C9446000C9446000C9446000C94460044
S11300200C9446000C9446000C9446000C94460034
S11300300C9446000C9446000C9446000C94460024
S11300400C9446000C9446000C9446000C94460014
S11300500C9446000C947C000C9446000C944600CE
S11300600C9446000C94460011241FBECFEFD8E038
S1130070DEBFCDBF21E0A0E0B1E001C01D92A13000
S1130080B207E1F70E9478000C94DF000C940000A2
S1130090ECE7F0E010828081866080838081806458
S11300A0808380818F778083808180628083EAE788
S11300B0F0E0108280818F608083808180688083FB
S11300C00895F89484B1826084B9A0E8B0E01C92E9
S11300D0E1E8F0E010828C9181688C9380818860E3
S11300E080838081856080830E944800789408958D
S11300F00E9461007894FFCF1F920F920FB60F9267
S113010011242F933F934F935F936F937F938F9318
S11301109F93AF93BF93EF93FF9390917900909344
S1130120000148E651E0949F9001959F300D112401
S1130130C9016FEF70E00E94B7007093890060936B
S11301408800EAE7F0E0808180618083FF91EF918D
S1130150BF91AF919F918F917F916F915F914F91DB
S11301603F912F910F900FBE0F901F90189597FB02
S1130170072E16F4009407D077FD09D00E94CB0017
S113018007FC05D03EF4909581959F4F0895709596
S113019061957F4F0895AA1BBB1B51E107C0AA1F9D
S11301A0BB1FA617B70710F0A61BB70B881F991F14
S11301B05A95A9F780959095BC01CD010895F894BE
S10501C0FFCF6B
S9030000FC
